{
  "contractName": "Instagram",
  "abi": [
    {
      "anonymous": false,
      "inputs": [
        {
          "indexed": false,
          "internalType": "uint256",
          "name": "id",
          "type": "uint256"
        },
        {
          "indexed": false,
          "internalType": "string",
          "name": "url",
          "type": "string"
        },
        {
          "indexed": false,
          "internalType": "string",
          "name": "description",
          "type": "string"
        },
        {
          "indexed": false,
          "internalType": "address payable",
          "name": "author",
          "type": "address"
        }
      ],
      "name": "ImageCreated",
      "type": "event"
    },
    {
      "anonymous": false,
      "inputs": [
        {
          "indexed": false,
          "internalType": "uint256",
          "name": "id",
          "type": "uint256"
        },
        {
          "indexed": false,
          "internalType": "string",
          "name": "url",
          "type": "string"
        },
        {
          "indexed": false,
          "internalType": "string",
          "name": "description",
          "type": "string"
        },
        {
          "indexed": false,
          "internalType": "uint256",
          "name": "totalTipped",
          "type": "uint256"
        },
        {
          "indexed": false,
          "internalType": "uint256",
          "name": "currentTip",
          "type": "uint256"
        },
        {
          "indexed": false,
          "internalType": "address payable",
          "name": "author",
          "type": "address"
        }
      ],
      "name": "ImageTipped",
      "type": "event"
    },
    {
      "inputs": [],
      "name": "imageCount",
      "outputs": [
        {
          "internalType": "uint256",
          "name": "",
          "type": "uint256"
        }
      ],
      "stateMutability": "view",
      "type": "function"
    },
    {
      "inputs": [
        {
          "internalType": "uint256",
          "name": "",
          "type": "uint256"
        }
      ],
      "name": "images",
      "outputs": [
        {
          "internalType": "uint256",
          "name": "id",
          "type": "uint256"
        },
        {
          "internalType": "string",
          "name": "url",
          "type": "string"
        },
        {
          "internalType": "string",
          "name": "caption",
          "type": "string"
        },
        {
          "internalType": "uint256",
          "name": "totalTipped",
          "type": "uint256"
        },
        {
          "internalType": "address payable",
          "name": "author",
          "type": "address"
        }
      ],
      "stateMutability": "view",
      "type": "function"
    },
    {
      "inputs": [
        {
          "internalType": "string",
          "name": "_imgUrl",
          "type": "string"
        },
        {
          "internalType": "string",
          "name": "_caption",
          "type": "string"
        }
      ],
      "name": "uploadImage",
      "outputs": [],
      "stateMutability": "nonpayable",
      "type": "function"
    },
    {
      "inputs": [
        {
          "internalType": "uint256",
          "name": "_id",
          "type": "uint256"
        }
      ],
      "name": "tipImageOwner",
      "outputs": [],
      "stateMutability": "payable",
      "type": "function"
    }
  ],
  "bytecode": "0x60806040526000805534801561001457600080fd5b506112e3806100246000396000f3fe60806040526004361061003f5760003560e01c806384856482146100445780638567ade81461008557806392053b63146100a1578063a91b8314146100cc575b600080fd5b34801561005057600080fd5b5061006b600480360381019061006691906109e8565b6100f5565b60405161007c959493929190610af5565b60405180910390f35b61009f600480360381019061009a91906109e8565b61025b565b005b3480156100ad57600080fd5b506100b6610714565b6040516100c39190610b56565b60405180910390f35b3480156100d857600080fd5b506100f360048036038101906100ee9190610ca6565b61071a565b005b600160205280600052604060002060009150905080600001549080600101805461011e90610d4d565b80601f016020809104026020016040519081016040528092919081815260200182805461014a90610d4d565b80156101975780601f1061016c57610100808354040283529160200191610197565b820191906000526020600020905b81548152906001019060200180831161017a57829003601f168201915b5050505050908060020180546101ac90610d4d565b80601f01602080910402602001604051908101604052809291908181526020018280546101d890610d4d565b80156102255780601f106101fa57610100808354040283529160200191610225565b820191906000526020600020905b81548152906001019060200180831161020857829003601f168201915b5050505050908060030154908060040160009054906101000a900473ffffffffffffffffffffffffffffffffffffffff16905085565b6000600160008381526020019081526020016000206040518060c00160405290816000820154815260200160018201805461029590610d4d565b80601f01602080910402602001604051908101604052809291908181526020018280546102c190610d4d565b801561030e5780601f106102e35761010080835404028352916020019161030e565b820191906000526020600020905b8154815290600101906020018083116102f157829003601f168201915b5050505050815260200160028201805461032790610d4d565b80601f016020809104026020016040519081016040528092919081815260200182805461035390610d4d565b80156103a05780601f10610375576101008083540402835291602001916103a0565b820191906000526020600020905b81548152906001019060200180831161038357829003601f168201915b50505050508152602001600382015481526020016004820160009054906101000a900473ffffffffffffffffffffffffffffffffffffffff1673ffffffffffffffffffffffffffffffffffffffff1673ffffffffffffffffffffffffffffffffffffffff1681526020016005820180548060200260200160405190810160405280929190818152602001828054801561048e57602002820191906000526020600020905b8160009054906101000a900473ffffffffffffffffffffffffffffffffffffffff1673ffffffffffffffffffffffffffffffffffffffff1681526020019060010190808311610444575b5050505050815250509050816000111580156104ac57506000548211155b6104eb576040517f08c379a00000000000000000000000000000000000000000000000000000000081526004016104e290610dca565b60405180910390fd5b6000341161052e576040517f08c379a000000000000000000000000000000000000000000000000000000000815260040161052590610e36565b60405180910390fd5b806080015173ffffffffffffffffffffffffffffffffffffffff163373ffffffffffffffffffffffffffffffffffffffff16036105a0576040517f08c379a000000000000000000000000000000000000000000000000000000000815260040161059790610ea2565b60405180910390fd5b806080015173ffffffffffffffffffffffffffffffffffffffff166108fc349081150290604051600060405180830381858888f193505050501580156105ea573d6000803e3d6000fd5b503481606001516105fb9190610ef1565b816060018181525050806001600084815260200190815260200160002060008201518160000155602082015181600101908161063791906110d1565b50604082015181600201908161064d91906110d1565b506060820151816003015560808201518160040160006101000a81548173ffffffffffffffffffffffffffffffffffffffff021916908373ffffffffffffffffffffffffffffffffffffffff16021790555060a08201518160050190805190602001906106bb9291906108f7565b509050507f85b44d33c319c93f98e6f749d3ffaa478d65e487e30724c57d4458b31de6146c82826020015183604001518460600151348660800151604051610708969594939291906111a3565b60405180910390a15050565b60005481565b600073ffffffffffffffffffffffffffffffffffffffff163373ffffffffffffffffffffffffffffffffffffffff160361075357600080fd5b60008081548092919061076590611212565b91905055506040518060c001604052806000548152602001838152602001828152602001600081526020013373ffffffffffffffffffffffffffffffffffffffff168152602001600067ffffffffffffffff8111156107c7576107c6610b7b565b5b6040519080825280602002602001820160405280156107f55781602001602082028036833780820191505090505b50815250600160008054815260200190815260200160002060008201518160000155602082015181600101908161082c91906110d1565b50604082015181600201908161084291906110d1565b506060820151816003015560808201518160040160006101000a81548173ffffffffffffffffffffffffffffffffffffffff021916908373ffffffffffffffffffffffffffffffffffffffff16021790555060a08201518160050190805190602001906108b09291906108f7565b509050507fb82a9f3a70bc97d2ca962d6c417b770c2158b2014d3f028d4de74b315692d4c76000548383336040516108eb949392919061125a565b60405180910390a15050565b828054828255906000526020600020908101928215610970579160200282015b8281111561096f5782518260006101000a81548173ffffffffffffffffffffffffffffffffffffffff021916908373ffffffffffffffffffffffffffffffffffffffff16021790555091602001919060010190610917565b5b50905061097d9190610981565b5090565b5b8082111561099a576000816000905550600101610982565b5090565b6000604051905090565b600080fd5b600080fd5b6000819050919050565b6109c5816109b2565b81146109d057600080fd5b50565b6000813590506109e2816109bc565b92915050565b6000602082840312156109fe576109fd6109a8565b5b6000610a0c848285016109d3565b91505092915050565b610a1e816109b2565b82525050565b600081519050919050565b600082825260208201905092915050565b60005b83811015610a5e578082015181840152602081019050610a43565b60008484015250505050565b6000601f19601f8301169050919050565b6000610a8682610a24565b610a908185610a2f565b9350610aa0818560208601610a40565b610aa981610a6a565b840191505092915050565b600073ffffffffffffffffffffffffffffffffffffffff82169050919050565b6000610adf82610ab4565b9050919050565b610aef81610ad4565b82525050565b600060a082019050610b0a6000830188610a15565b8181036020830152610b1c8187610a7b565b90508181036040830152610b308186610a7b565b9050610b3f6060830185610a15565b610b4c6080830184610ae6565b9695505050505050565b6000602082019050610b6b6000830184610a15565b92915050565b600080fd5b600080fd5b7f4e487b7100000000000000000000000000000000000000000000000000000000600052604160045260246000fd5b610bb382610a6a565b810181811067ffffffffffffffff82111715610bd257610bd1610b7b565b5b80604052505050565b6000610be561099e565b9050610bf18282610baa565b919050565b600067ffffffffffffffff821115610c1157610c10610b7b565b5b610c1a82610a6a565b9050602081019050919050565b82818337600083830152505050565b6000610c49610c4484610bf6565b610bdb565b905082815260208101848484011115610c6557610c64610b76565b5b610c70848285610c27565b509392505050565b600082601f830112610c8d57610c8c610b71565b5b8135610c9d848260208601610c36565b91505092915050565b60008060408385031215610cbd57610cbc6109a8565b5b600083013567ffffffffffffffff811115610cdb57610cda6109ad565b5b610ce785828601610c78565b925050602083013567ffffffffffffffff811115610d0857610d076109ad565b5b610d1485828601610c78565b9150509250929050565b7f4e487b7100000000000000000000000000000000000000000000000000000000600052602260045260246000fd5b60006002820490506001821680610d6557607f821691505b602082108103610d7857610d77610d1e565b5b50919050565b7f496e76616c696420696d61676520494400000000000000000000000000000000600082015250565b6000610db4601083610a2f565b9150610dbf82610d7e565b602082019050919050565b60006020820190508181036000830152610de381610da7565b9050919050565b7f4120746970206d7573742062652067726561746572207468616e203000000000600082015250565b6000610e20601c83610a2f565b9150610e2b82610dea565b602082019050919050565b60006020820190508181036000830152610e4f81610e13565b9050919050565b7f4f776e65722063616e6e6f7420746970207468656972206f776e20696d616765600082015250565b6000610e8c602083610a2f565b9150610e9782610e56565b602082019050919050565b60006020820190508181036000830152610ebb81610e7f565b9050919050565b7f4e487b7100000000000000000000000000000000000000000000000000000000600052601160045260246000fd5b6000610efc826109b2565b9150610f07836109b2565b9250828201905080821115610f1f57610f1e610ec2565b5b92915050565b60008190508160005260206000209050919050565b60006020601f8301049050919050565b600082821b905092915050565b600060088302610f877fffffffffffffffffffffffffffffffffffffffffffffffffffffffffffffffff82610f4a565b610f918683610f4a565b95508019841693508086168417925050509392505050565b6000819050919050565b6000610fce610fc9610fc4846109b2565b610fa9565b6109b2565b9050919050565b6000819050919050565b610fe883610fb3565b610ffc610ff482610fd5565b848454610f57565b825550505050565b600090565b611011611004565b61101c818484610fdf565b505050565b5b8181101561104057611035600082611009565b600181019050611022565b5050565b601f8211156110855761105681610f25565b61105f84610f3a565b8101602085101561106e578190505b61108261107a85610f3a565b830182611021565b50505b505050565b600082821c905092915050565b60006110a86000198460080261108a565b1980831691505092915050565b60006110c18383611097565b9150826002028217905092915050565b6110da82610a24565b67ffffffffffffffff8111156110f3576110f2610b7b565b5b6110fd8254610d4d565b611108828285611044565b600060209050601f83116001811461113b5760008415611129578287015190505b61113385826110b5565b86555061119b565b601f19841661114986610f25565b60005b828110156111715784890151825560018201915060208501945060208101905061114c565b8683101561118e578489015161118a601f891682611097565b8355505b6001600288020188555050505b505050505050565b600060c0820190506111b86000830189610a15565b81810360208301526111ca8188610a7b565b905081810360408301526111de8187610a7b565b90506111ed6060830186610a15565b6111fa6080830185610a15565b61120760a0830184610ae6565b979650505050505050565b600061121d826109b2565b91507fffffffffffffffffffffffffffffffffffffffffffffffffffffffffffffffff820361124f5761124e610ec2565b5b600182019050919050565b600060808201905061126f6000830187610a15565b81810360208301526112818186610a7b565b905081810360408301526112958185610a7b565b90506112a46060830184610ae6565b9594505050505056fea2646970667358221220582b26fdd617364653f3d368d059f9432ca8a3baa249adbf43ccfc2138a30a3364736f6c63430008110033",
  "immutableReferences": {},
  "source": "// SPDX-License-Identifier: MIT\npragma solidity ^0.8.17;\n\ncontract Instagram {\n    struct Image {\n        uint256 id;\n        string url;\n        string caption;\n        uint256 totalTipped;\n        address payable author;\n        address[] tipperAddresses;\n    }\n\n    uint256 public imageCount = 0;\n\n    mapping(uint256 => Image) public images;\n\n    event ImageCreated(\n        uint256 id,\n        string url,\n        string description,\n        address payable author\n    );\n\n    event ImageTipped(\n        uint256 id,\n        string url,\n        string description,\n        uint256 totalTipped,\n        uint256 currentTip,\n        address payable author\n    );\n\n    function uploadImage(string memory _imgUrl, string memory _caption) public {\n        require(msg.sender != address(0));\n        imageCount++;\n\n        images[imageCount] = Image(\n            imageCount,\n            _imgUrl,\n            _caption,\n            0,\n            payable(msg.sender),\n            new address[](0)\n        );\n\n        emit ImageCreated(imageCount, _imgUrl, _caption, payable(msg.sender));\n    }\n\n    function tipImageOwner(uint256 _id) public payable {\n        Image memory _image = images[_id];\n\n        require(0 <= _id && _id <= imageCount, \"Invalid image ID\");\n        require(msg.value > 0, \"A tip must be greater than 0\");\n        require(\n            msg.sender != _image.author,\n            \"Owner cannot tip their own image\"\n        );\n\n        payable(address(_image.author)).transfer(msg.value);\n\n        _image.totalTipped = _image.totalTipped + msg.value;\n        images[_id] = _image;\n\n        emit ImageTipped(\n            _id,\n            _image.url,\n            _image.caption,\n            _image.totalTipped,\n            msg.value,\n            _image.author\n        );\n    }\n}\n",
  "sourcePath": "/Users/davidrakosi/GitHub/bts-instagram-clone-infura/truffle-app/contracts/Instagram.sol",
  "compiler": {
    "name": "solc",
    "version": "0.8.17+commit.8df45f5f.Emscripten.clang"
  },
  "schemaVersion": "3.4.9",
  "updatedAt": "2022-09-29T05:08:43.230Z",
  "devdoc": {
    "kind": "dev",
    "methods": {},
    "version": 1
  },
  "userdoc": {
    "kind": "user",
    "methods": {},
    "version": 1
  }
}